:020000040000fa
:10000000f07f0020c1040000a7050000a705000044
:1000100000000000000000000000000000000000e0
:10002000000000000000000000000000a705000024
:100030000000000000000000a7050000a705000068
:10004000a7050000a7050000a7050000a705000000
:10005000a7050000a7050000a7050000a7050000f0
:10006000a7050000a7050000a7050000a7050000e0
:10007000a7050000a7050000a7050000a7050000d0
:10008000a7050000a7050000a7050000a7050000c0
:10009000a7050000a7050000a7050000a7050000b0
:1000a000a7050000a7050000a7050000a7050000a0
:1000b000a7050000a7050000a7050000a705000090
:1000c000a7050000a7050000a7050000a705000080
:1000d000a7050000a7050000a7050000a705000070
:1000e000a7050000a7050000a7050000a705000060
:1000f000a7050000a7050000a7050000a705000050
:10010000a7050000a7050000a7050000a70500003f
:10011000a7050000a7050000a7050000a70500002f
:10012000a7050000a7050000a7050000a70500001f
:10013000a7050000a7050000a7050000a70500000f
:10014000a7050000a7050000a7050000a7050000ff
:0c015000a7050000a7050000a70500009f
:020000040000fa
:10015c00f8b5c046f8bc08bc9e467047790600004e
:10016c00f8b5c046f8bc08bc9e4670475506000062
:020000040000fa
:10017c0080b500af44f20003c4f2001306225a60ab
:10018c0000f007f800f01bf800f056f8c046bd462a
:10019c0080bd80b500af41f20003c4f200034e22d3
:1001ac001a76c04641f20003c4f200031b69102208
:1001bc001340102bf6d1c046c046bd4680bd80b55d
:1001cc0000af41f60043c4f2000340f20512c0f246
:1001dc0001021a62c04641f60043c4f200035b6898
:1001ec0004221340042bf6d041f60043c4f2000362
:1001fc00cc2240219950c04641f60043c4f2000382
:10020c00cc229b5840221340402bf5d141f60043a1
:10021c00c4f20003d02240219950c04641f600435d
:10022c00c4f20003d0229b5840221340402bf5d13e
:10023c00c046c046bd4680bd80b500af43f200034a
:10024c00c4f2000348f200721a6043f20003c4f2d5
:10025c000003802240f20011995043f20003c4f2d3
:10026c000003c8220121995443f20003c4f2000395
:10027c00c9220121995443f20003c4f200034b221a
:10028c000121995443f20003c4f2000348220121d6
:10029c00995443f20003c4f20003492201219954fa
:1002ac0043f20003c4f200034a220121995443f2a1
:1002bc000003c4f2000357220621995443f20003b1
:1002cc00c4f200034f220021995443f20003c4f2fc
:1002dc000003b4223321995443f20003c4f2000307
:1002ec0034222221995443f20003c4f20003352234
:1002fc002221995443f20003c4f200039a6943f299
:10030c000003c4f2000348f200010a439a61c0469c
:04031c00bd4680bd9d
:020000040000fa
:1003200080b582b000af0200fb1d1a70fb1d1b7868
:100330007f2b12d8fb1d1b781a001f231a401100b7
:100340004ef20013cef20003fa1d127852b2520997
:100350000120884001009200d150c046bd4602b045
:1003600080bd80b500af40f60003c4f20003da6937
:1003700040f60003c4f2000310210a43da6141f29f
:100380000003c4f200238422c6f210021a6041f274
:100390000003c4f200231a4a9a8141f20003c4f216
:1003a0000023c02292025a60c04641f20003c4f208
:1003b0000023db6904221340042bf6d041f2000332
:1003c000c4f200231a6841f20003c4f200230221a0
:1003d0000a431a60c04641f20003c4f20023db69fd
:1003e00002221340022bf6d041f20003c4f2002394
:1003f00004229a752b20fff793ffc046bd4680bdaf
:100400008bfdffff80b582b000af0200fb1d1a70ac
:10041000c04641f20003c4f200231b7edbb21a0087
:1004200001231340012bf4d141f20003c4f2002355
:10043000fa1d12789a62c046bd4602b080bd80b5f2
:1004400082b000af786014e0c04641f20003c4f20d
:1004500000231b7edbb21a0001231340012bf4d1d1
:100460007b685a1c7a601a7841f20003c4f20023b8
:100470009a627b681b78002be6d1c046c046bd4619
:1004800002b080bd80b582b000af41f20003c4f27b
:1004900000231b7edbb21a0004231340042b0bd174
:1004a00041f20003c4f200239a6afb1d1a70fb1d7f
:1004b0001b781800fff7a6ffc046bd4602b080bdfe
:020000040000fa
:1004c00040f20003c0f2000323b140f20003c0f287
:1004d0000003984740f20003c0f2000323b140f24a
:1004e0000003c0f20003984700f0d4f840f2000384
:1004f000c0f200037f2293434ef60052cef2000278
:10050000936040f2a953c0f20003984740f2000301
:10051000c0f2000323b140f20003c0f20003984789
:1005200040f20003c0f2000323b140f20003c0f226
:0e053000000398470021002000f0c6f8fee707
:020000040000fa
:10053e0080b582b000af786002e07b68013b7b60e3
:10054e007b68002bf9d1c046c046bd4602b080bdc7
:10055e0080b500af43f20003c4f2000348f200027c
:10056e005a61c046bd4680bd80b500af43f2000360
:10057e00c4f2000348f200029a61c046bd4680bd37
:10058e0080b500af43f20003c4f2000348f200024c
:08059e00da61c046bd4680bdd4
:020000040000fa
:0205a600fee76e
:020000040000fa
:1005a80000230e4a10b513600d4a0e4c13600e4a14
:1005b80013600e4a13600e4a13600e4a53621361a9
:1005c8000133936000f0e4f800f0e2f80a4b9c4233
:1005d80000d310bd08cc9847f8e7c046700000204b
:1005e8000c00002068010000080000200000002026
:0c05f80004000020100000206c01000036
:020000040000fa
:10060400740000200400000001000000000000004d
:100614005000002020000000000000000000002026
:1006240050000000000000007000002004000000e2
:100634000000000078000020040000000100000019
:10064400000000000000000000000000666666660e
:020000040000fa
:1006540010b5054c237833b9044b13b1044800e0ba
:1006640000bf0123237010bd5000002000000000d3
:1006740000000000034b10b51bb10349034800e020
:1006840000bf10bd00000000540000200000000066
:020000040000fa
:1006940010b50a48016821b9436813b900f06ff82e
:1006a40010bd04008368064a9bb20c349b009b581f
:1006b40042682000984780002018ebe704060000f9
:0406c4005c070000cf
:020000040000fa
:1006c80080b500affff756fdfff747fefff75bff6a
:1006d80040f28473c0f200031800fff7acfe44f642
:0e06e8008073c0f212031800fff725ffeee743
:020000040000fa
:1006f6001e1819181c182c1834182e182b182d18fb
:1007060026182818371803181118401838183018e2
:0407160007180000c0
:020000040000fa
:10071a001e1819181c182c1834182e182b182d18d6
:10072a0026182818371803181118401838183018be
:04073a00071800009c
:020000040000fa
:10073e00002310b5934206d103201840421e90416b
:0e074e009b08c01810bdc45ccc540133f2e708
:020000040000fa
:10075c00710700003f070000950700009507000097
:04076c0095070000ed
:020000040000fa
:100770008a18914201d10020704700230b7001318b
:02078000f7e799
:020000040000fa
:020782007047be
:020000040000fa
:100784005553415254204d6573736167650a2000c7
:020000040000fa
:04079400002070478a
:020000040000fa
:020798007047a8
:020000040000fa
:0200000400807a
:0440000077438fb0c3
:020000040000fa
:0200000400807a
:04400400bbf0ffff0f
:020000040000fa
:0200000400807a
:0440080000fc33e89d
:020000040000fa
:0200000400807a
:04400c0000ffffffb3
:020000040000fa
:0200000400807a
:044010008412000016
:020000040000fa
:0200000400807a
:0440140002000000a6
:020000040000fa
:0200000400807a
:044018001000010093
:020000040000fa
:0200000400807a
:04401c0000000000a0
:020000040000fa
:0200000400807a
:04402000173db6e6ac
:020000040000fa
:0200000400807a
:04c00000ffff07f047
:020000040000fa
:0200000400807a
:04c004000000e8ff51
:020000040000fa
:0200000400807a
:04c00800cc9a34c0da
:020000040000fa
:0200000400807a
:04c01000ffffffff30
:020000040000fa
:0200000400807a
:04c01400ffffffff2c
:020000040000fa
:0200000400807a
:04c01800ffffffff28
:020000040000fa
:0200000400807a
:04c01c00ffffffff24
:020000040000fa
:0200000400807a
:04c02000ffffffff20
:020000040000fa
:0200000400807a
:04c02400ffffffff1c
:020000040000fa
:0200000400807a
:04c02800ffffffff18
:020000040000fa
:0200000400807a
:04c02c00ffffffff14
:020000040000fa
:0200000400807a
:04c03000ffffffff10
:020000040000fa
:0200000400807a
:04c03400ffffffff0c
:020000040000fa
:0200000400807a
:04c03800ffffffff08
:020000040000fa
:0200000400807a
:04c03c00ffffffff04
:020000040000fa
:0200000400807a
:04c04000ffffffff00
:020000040000fa
:0200000400807a
:04c04400fffffffffc
:020000040000fa
:0200000400807a
:04c04800fffffffff8
:020000040000fa
:0200000400807a
:04c04c00fffffffff4
:020000040000fa
:0200000400807a
:04c05000fffffffff0
:020000040000fa
:0200000400807a
:04c05400ffffffffec
:020000040000fa
:0200000400807a
:04c05800ffffffffe8
:020000040000fa
:0200000400807a
:04c05c00ffffffffe4
:020000040000fa
:0200000400807a
:04c06000ffffffffe0
:020000040000fa
:0200000400807a
:04c06400ffffffffdc
:020000040000fa
:0200000400807a
:04c06800ffffffffd8
:020000040000fa
:0200000400807a
:04c06c00ffffffffd4
:020000040000fa
:0200000400807a
:04c07000ffffffffd0
:020000040000fa
:0200000400807a
:04c07400ffffffffcc
:020000040000fa
:0200000400807a
:04c07800ffffffffc8
:020000040000fa
:0200000400807a
:04c07c00ffffffffc4
:020000040000fa
:0200000400807a
:04c08000ffffffffc0
:020000040000fa
:0200000400807a
:04c08400ffffffffbc
:020000040000fa
:0200000400807a
:04c08800ffffffffb8
:020000040000fa
:0200000400807a
:04c08c00ffffffffb4
:020000040000fa
:0200000400807a
:04c0e000ffffffff60
:020000040000fa
:0200000400807a
:04c0e400ffffffff5c
:020000040000fa
:0200000400807a
:04c0e800ffffffff58
:020000040000fa
:0200000400807a
:04c0ec00ffffffff54
:020000040000fa
:0200000400807a
:04c0f000ffffffff50
:020000040000fa
:0200000400807a
:04c0f400ffffffff4c
:020000040000fa
:0200000400807a
:04c0f800ffffffff48
:020000040000fa
:0200000400807a
:04c0fc00ffffffff44
:00000001FF
