:020000040000fa
:10000000f07f0020350a00006f0600006f06000038
:1000100000000000000000000000000000000000e0
:100020000000000000000000000000006f0600005b
:1000300000000000000000006f0600006f060000d6
:100040006f0600006f0600006f0600006f060000dc
:100050006f0600006f0600006f0600006f060000cc
:100060006f0600006f0600006f0600006f060000bc
:100070006f0600006f0600006f0600006f060000ac
:100080006f0600006f0600006f0600006f0600009c
:100090006f0600006f0600006f0600006f0600008c
:1000a0006f0600006f0600006f0600006f0600007c
:1000b0006f0600006f0600006f0600006f0600006c
:1000c0006f0600006f0600006f0600006f0600005c
:1000d0006f0600006f0600006f0600006f0600004c
:1000e0006f0600006f0600006f0600006f0600003c
:1000f0006f0600006f0600006f0600006f0600002c
:100100006f0600006f0600006f0600006f0600001b
:100110006f0600006f0600006f0600006f0600000b
:100120006f0600006f0600006f0600006f060000fb
:100130006f0600006f0600006f0600006f060000eb
:100140006f0600006f0600006f0600006f060000db
:0c0150006f0600006f0600006f06000044
:020000040000fa
:10015c00f8b5c046f8bc08bc9e467047410c000080
:10016c00f8b5c046f8bc08bc9e4670471d0c000094
:020000040000fa
:10017c0080b582b000af00237b600ce040f2e0035e
:10018c00c2f200037a689b181b78180000f083fbfe
:10019c007b6801337b607b68062befddc046c04675
:1001ac00bd4602b080bd90b583b000affb1d0022f0
:1001bc001a7017e0fb1d1a7840f2dc03c2f2000340
:1001cc009a5cfb1d1c78100000f065fb03001a0004
:1001dc0040f20003c2f200031a55fb1d1a78fb1df6
:1001ec0001321a70fb1d1b78012be3d9c046c046a7
:1001fc00bd4603b090bd90b583b000affb1d00228f
:10020c001a7017e0fb1d1a7840f2f403c2f20003d7
:10021c009a5cfb1d1c78100000f03dfb03001a00db
:10022c0040f21003c2f200031a55fb1d1a78fb1d95
:10023c0001321a70fb1d1b78022be3d9bb1d002267
:10024c001a7017e0bb1d1a7840f2f403c2f20003d7
:10025c009a5cbb1d1c78100000f01dfb03001a00fb
:10026c0040f21403c2f200031a55bb1d1a78bb1dd1
:10027c0001321a70bb1d1b78042be3d9c046c04653
:10028c00bd4603b090bd90b583b000affb1d0022fe
:10029c001a7017e0fb1d1a7840f20013c2f200032b
:1002ac009a5cfb1d1c78100000f0f5fa03001a0094
:1002bc0040f21c03c2f200031a55fb1d1a78fb1df9
:1002cc0001321a70fb1d1b78022be3d9bb1d0022d7
:1002dc001a7017e0bb1d1a7840f20413c2f2000327
:1002ec009a5cbb1d1c78100000f0d5fa03001a00b4
:1002fc0040f22003c2f200031a55bb1d1a78bb1d35
:10030c0001321a70bb1d1b78102be3d9c046c046b6
:10031c00bd4603b090bd90b583b000affb1d00226d
:10032c001a7017e0fb1d1a7840f21813c2f2000382
:10033c009a5cfb1d1c78100000f0adfa03001a004b
:10034c0040f23403c2f200031a55fb1d1a78fb1d50
:10035c0001321a70fb1d1b78022be3d9bb1d002246
:10036c001a7017e0bb1d1a7840f21c13c2f200037e
:10037c009a5cbb1d1c78100000f08dfa03001a006b
:10038c0040f23803c2f200031a55bb1d1a78bb1d8c
:10039c0001321a70bb1d1b78062be3d9c046c04630
:1003ac00bd4603b090bd90b583b000affb1d0022dd
:1003bc001a7017e0fb1d1a7840f2e803c2f2000332
:1003cc009a5cfb1d1c78100000f065fa03001a0003
:1003dc0040f20403c2f200031a55fb1d1a78fb1df0
:1003ec0001321a70fb1d1b78032be3d9c046c046a3
:1003fc00bd4603b090bd90b583b000affb1d00228d
:10040c001a7017e0fb1d1a7840f2ec03c2f20003dd
:10041c009a5cfb1d1c78100000f03dfa03001a00da
:10042c0040f20803c2f200031a55fb1d1a78fb1d9b
:10043c0001321a70fb1d1b78032be3d9c046c04652
:10044c00bd4603b090bd90b583b000affb1d00223c
:10045c001a7017e0fb1d1a7840f2f003c2f2000389
:10046c009a5cfb1d1c78100000f015fa03001a00b2
:10047c0040f20c03c2f200031a55fb1d1a78fb1d47
:10048c0001321a70fb1d1b78022be3d9c046c04603
:10049c00bd4603b090bd80b500af40f6fc43c0f242
:1004ac000003180000f06df940f20003c2f20003e3
:0e04bc005b78180000f065f9c046bd4680bdb3
:020000040000fa
:1004ca0080b500af44f20003c4f2001306225a605a
:1004da0000f007f800f01bf800f056f8c046bd46d9
:1004ea0080bd80b500af41f20003c4f200034e2282
:1004fa001a76c04641f20003c4f200031b691022b7
:10050a001340102bf6d1c046c046bd4680bd80b50b
:10051a0000af41f60043c4f2000340f20512c0f2f4
:10052a0001021a62c04641f60043c4f200035b6846
:10053a0004221340042bf6d041f60043c4f2000310
:10054a00c82240219950c04641f60043c4f2000334
:10055a00c8229b5840221340402bf5d141f6004354
:10056a00c4f20003d02240219950c04641f600430c
:10057a00c4f20003d0229b5840221340402bf5d1ed
:10058a00c046c046bd4680bd80b500af43f20003f9
:10059a00c4f2000348f200721a6043f20003c4f284
:1005aa000003802240f20011995043f20003c4f282
:1005ba000003c8220121995443f20003c4f2000344
:1005ca00c9220121995443f20003c4f200034b22c9
:1005da000121995443f20003c4f200034822012185
:1005ea00995443f20003c4f20003492201219954a9
:1005fa0043f20003c4f200034a220121995443f250
:10060a000003c4f2000357220621995443f200035f
:10061a00c4f200034f220021995443f20003c4f2aa
:10062a000003b4223321995443f20003c4f20003b5
:10063a0034222221995443f20003c4f200033522e2
:10064a002221995443f20003c4f200039a6943f247
:10065a000003c4f2000348f200010a439a61c0464b
:04066a00bd4680bd4c
:020000040000fa
:02066e00fee7a5
:020000040000fa
:1006700080b582b000af0200fb1d1a70fb1d1b7815
:100680007f2b12d8fb1d1b781a001f231a40110064
:100690004ef20013cef20003fa1d127852b2520944
:1006a0000120884001009200d150c046bd4602b0f2
:1006b00080bd80b500af40f60003c4f20003da69e4
:1006c00040f60003c4f2000310210a43da6141f24c
:1006d0000003c4f200238422c6f210021a6041f221
:1006e0000003c4f200231a4a9a8141f20003c4f2c3
:1006f0000023c02292025a60c04641f20003c4f2b5
:100700000023db6904221340042bf6d041f20003de
:10071000c4f200231a6841f20003c4f2002302214c
:100720000a431a60c04641f20003c4f20023db69a9
:1007300002221340022bf6d041f20003c4f2002340
:1007400004229a752d20fff793ffc046bd4680bd59
:100750008bfdffff80b582b000af0200fb1d1a7059
:10076000c04641f20003c4f200231b7edbb21a0034
:1007700001231340012bf4d141f20003c4f2002302
:10078000fa1d12789a62c046bd4602b080bd80b59f
:1007900082b000af786014e0c04641f20003c4f2ba
:1007a00000231b7edbb21a0001231340012bf4d17e
:1007b0007b685a1c7a601a7841f20003c4f2002365
:1007c0009a627b681b78002be6d1c046c046bd46c6
:1007d00002b080bd80b582b000af41f20003c4f228
:1007e00000231b7edbb21a0004231340042b0bd121
:1007f00041f20003c4f200239a6afb1d1a70fb1d2c
:100800001b781800fff7a6ffc046bd4602b080bdaa
:020000040000fa
:1008100080b500af40f60003c4f20003da6940f689
:100820000003c4f2000304210a43da6140f6000326
:10083000c4f200238c22c2f201021a6040f60003c7
:10084000c4f200238b221a7340f60003c4f2002383
:1008500042f20022c0f202025a60c04640f6000393
:10086000c4f20023db6904221340042bf6d040f6c7
:100870000003c4f200231a6840f60003c4f2002308
:1008800002210a431a60c04640f60003c4f2002366
:10089000db6902221340022bf6d0c046c046bd469b
:1008a00080bd90b585b000af0200fb1d1a70c04638
:1008b00040f60003c4f200231b7edbb21a000123c2
:1008c0001340012bf4d140f60003c4f20023fa1dbb
:1008d00012789a62c04640f60003c4f200231b7ee1
:1008e000dbb21a0004231340042bf4d140f60003ba
:1008f000c4f200239a6a0f243b191a7040f614536d
:10090000c0f200031800fff742ff3b191b781800e4
:10091000fff720ff0a20fff71dff3b191b78180087
:10092000bd4605b090bd80b582b000af40f6000373
:10093000c4f200231b7edbb21a0004231340abb1c8
:1009400040f60003c4f200239a6afb1d1a7040f6b9
:100950001453c0f200031800fff719fffb1d1b78aa
:100960001800fff7f7fe0a20fff7f4fec046bd4669
:0409700002b080bd94
:020000040000fa
:100974002401002004000000010000000000000029
:10098400b80000201c00000000000000dc00002073
:100994004700000001000000d0000000720174252f
:1009a40075800000fafbfc00f7f8f900fdfe00007a
:1009b400888900008a8b8c8d000000008e8f0000d7
:1009c400909192939495969798999a9b9c9d9e9fab
:1009d40000000000a1e30000e1e2e4e5e6e7000036
:1009e400000000206800000000000000d400002087
:1009f4000400000000000000680000205000000017
:100a040000000000d80000200400000000000000e6
:100a14002801002004000000010000000000000084
:100a24000000000000000000666666666666666692
:020000040000fa
:100a340040f20003c0f2000323b140f20003c0f20d
:100a44000003984740f20003c0f2000323b140f2d0
:100a54000003c0f20003984700f0fef840f20003e0
:100a6400c0f200037f2293434ef60052cef20002fe
:100a7400936040f67933c0f20003984740f20003d4
:100a8400c0f2000323b140f20003c0f20003984710
:100a940040f20003c0f2000323b140f20003c0f2ad
:0e0aa400000398470021002000f035f8fee71f
:020000040000fa
:100ab20080b582b000af786002e07b68013b7b606a
:100ac2007b68002bf9d1c046c046bd4602b080bd4e
:100ad20080b500af43f20003c4f2000348f2000203
:100ae2005a61c046bd4680bd80b500af43f20003e7
:100af200c4f2000348f200029a61c046bd4680bdbe
:100b020080b500af43f20003c4f2000348f20002d2
:080b1200da61c046bd4680bd5a
:020000040000fa
:100b1a0080b500affff7d4fcfff7c6fdfff773fe01
:100b2a0040f6d433c0f200031800fff72bfe40f65c
:100b3a00f033c0f200031800fff724fefff75cfb56
:100b4a00fff7a2fbfff7e8fbfff713fbfff7d4ff62
:100b5a0040f60c43c0f200031800fff713fe44f6f8
:0e0b6a008073c0f212031800fff79effeee743
:020000040000fa
:100b780000230e4a10b513600d4a0e4c13600e4a3e
:100b880013600e4a13600e4a13600e4a53621361d3
:100b98000133936000f0d9f800f0d7f80a4b9c4273
:100ba80000d310bd08cc9847f8e7c046d80000200d
:100bb8007400002068010000700000206800002018
:0c0bc8006c000020780000206c01000090
:020000040000fa
:100bd400535049205765617468657220436c69639a
:100be4006b204578616d706c650a0000496e69740c
:100bf40069616c697a696e672057656174686572aa
:100c040020436c69636b0a005553415254204d656f
:080c140073736167650a20009b
:020000040000fa
:100c1c0010b5054c237833b9044b13b1044800e0ec
:100c2c0000bf0123237010bdb8000020000000009d
:100c3c0000000000034b10b51bb10349034800e052
:100c4c0000bf10bd00000000bc0000200000000030
:020000040000fa
:100c5c0010b50a48016821b9436813b900f045f88a
:100c6c0010bd04008368064a9bb20c349b009b5851
:100c7c0042682000984780002018ebe774090000b8
:040c8c00280d00002f
:020000040000fa
:100c90001e1819181c182c1834182e182b182d185b
:100ca0002618281837180318111840183818301843
:040cb0000718000021
:020000040000fa
:100cb4001e1819181c182c1834182e182b182d1837
:100cc400261828183718031811184018381830181f
:040cd40007180000fd
:020000040000fa
:100cd800002310b5934206d103201840421e9041cc
:0e0ce8009b08c01810bdc45ccc540133f2e769
:020000040000fa
:020cf600704745
:020000040000fa
:100cf800000000000d0a424d453238302044657628
:0b0d08006963652049443a2030780000
:020000040000fa
:100d14005350492043686172207265636569766542
:040d2400643a20000d
:020000040000fa
:100d28003d0d0000d90c00004f0d00004f0d0000d4
:040d38004f0d00005b
:020000040000fa
:100d3c008a18914201d10020704700230b700131b9
:020d4c00f7e7c7
:020000040000fa
:040d4e0000207047ca
:020000040000fa
:020d52007047e8
:020000040000fa
:0200000400807a
:0440000077438fb0c3
:020000040000fa
:0200000400807a
:04400400bbf0ffff0f
:020000040000fa
:0200000400807a
:0440080000fc33e89d
:020000040000fa
:0200000400807a
:04400c0000ffffffb3
:020000040000fa
:0200000400807a
:044010008412000016
:020000040000fa
:0200000400807a
:0440140002000000a6
:020000040000fa
:0200000400807a
:04401800140001008f
:020000040000fa
:0200000400807a
:04401c0000000000a0
:020000040000fa
:0200000400807a
:04402000173db6e6ac
:020000040000fa
:0200000400807a
:04c00000ffff07f047
:020000040000fa
:0200000400807a
:04c004000000e8ff51
:020000040000fa
:0200000400807a
:04c00800cc9a34c0da
:020000040000fa
:0200000400807a
:04c01000ffffffff30
:020000040000fa
:0200000400807a
:04c01400ffffffff2c
:020000040000fa
:0200000400807a
:04c01800ffffffff28
:020000040000fa
:0200000400807a
:04c01c00ffffffff24
:020000040000fa
:0200000400807a
:04c02000ffffffff20
:020000040000fa
:0200000400807a
:04c02400ffffffff1c
:020000040000fa
:0200000400807a
:04c02800ffffffff18
:020000040000fa
:0200000400807a
:04c02c00ffffffff14
:020000040000fa
:0200000400807a
:04c03000ffffffff10
:020000040000fa
:0200000400807a
:04c03400ffffffff0c
:020000040000fa
:0200000400807a
:04c03800ffffffff08
:020000040000fa
:0200000400807a
:04c03c00ffffffff04
:020000040000fa
:0200000400807a
:04c04000ffffffff00
:020000040000fa
:0200000400807a
:04c04400fffffffffc
:020000040000fa
:0200000400807a
:04c04800fffffffff8
:020000040000fa
:0200000400807a
:04c04c00fffffffff4
:020000040000fa
:0200000400807a
:04c05000fffffffff0
:020000040000fa
:0200000400807a
:04c05400ffffffffec
:020000040000fa
:0200000400807a
:04c05800ffffffffe8
:020000040000fa
:0200000400807a
:04c05c00ffffffffe4
:020000040000fa
:0200000400807a
:04c06000ffffffffe0
:020000040000fa
:0200000400807a
:04c06400ffffffffdc
:020000040000fa
:0200000400807a
:04c06800ffffffffd8
:020000040000fa
:0200000400807a
:04c06c00ffffffffd4
:020000040000fa
:0200000400807a
:04c07000ffffffffd0
:020000040000fa
:0200000400807a
:04c07400ffffffffcc
:020000040000fa
:0200000400807a
:04c07800ffffffffc8
:020000040000fa
:0200000400807a
:04c07c00ffffffffc4
:020000040000fa
:0200000400807a
:04c08000ffffffffc0
:020000040000fa
:0200000400807a
:04c08400ffffffffbc
:020000040000fa
:0200000400807a
:04c08800ffffffffb8
:020000040000fa
:0200000400807a
:04c08c00ffffffffb4
:020000040000fa
:0200000400807a
:04c0e000ffffffff60
:020000040000fa
:0200000400807a
:04c0e400ffffffff5c
:020000040000fa
:0200000400807a
:04c0e800ffffffff58
:020000040000fa
:0200000400807a
:04c0ec00ffffffff54
:020000040000fa
:0200000400807a
:04c0f000ffffffff50
:020000040000fa
:0200000400807a
:04c0f400ffffffff4c
:020000040000fa
:0200000400807a
:04c0f800ffffffff48
:020000040000fa
:0200000400807a
:04c0fc00ffffffff44
:00000001FF
