:020000040000fa
:10000000f07f0020bd180000231200002312000022
:1000100000000000000000000000000000000000e0
:10002000000000000000000000000000231200009b
:100030000000000000000000231200002312000056
:1000400023120000231200002312000023120000dc
:1000500023120000231200002312000023120000cc
:1000600023120000231200002312000023120000bc
:1000700023120000231200002312000023120000ac
:10008000231200002312000023120000231200009c
:10009000231200002312000023120000231200008c
:1000a000231200002312000023120000231200007c
:1000b000231200002312000023120000231200006c
:1000c000231200002312000023120000231200005c
:1000d000231200002312000023120000231200004c
:1000e000231200002312000023120000231200003c
:1000f000231200002312000023120000231200002c
:10010000231200002312000023120000231200001b
:10011000231200002312000023120000231200000b
:1001200023120000231200002312000023120000fb
:1001300023120000231200002312000023120000eb
:1001400023120000231200002312000023120000db
:0c01500023120000231200002312000004
:020000040000fa
:10015c00f8b5c046f8bc08bc9e467047111b0000a1
:10016c00f8b5c046f8bc08bc9e467047ed1a0000b6
:020000040000fa
:10017c0080b582b000af00237b600ce040f2e0035e
:10018c00c2f200037a689b181b78180001f020fa61
:10019c007b6801337b607b68062befddc046c04675
:1001ac00bd4602b080bd90b583b000affb1d0022f0
:1001bc001a7017e0fb1d1a7840f2dc03c2f2000340
:1001cc009a5cfb1d1c78100001f002fa03001a0067
:1001dc0040f20003c2f200031a55fb1d1a78fb1df6
:1001ec0001321a70fb1d1b78012be3d9c046c046a7
:1001fc00bd4603b090bd90b583b000affb1d00228f
:10020c001a7017e0fb1d1a7840f2f403c2f20003d7
:10021c009a5cfb1d1c78100001f0daf903001a003f
:10022c0040f21003c2f200031a55fb1d1a78fb1d95
:10023c0001321a70fb1d1b78022be3d9bb1d002267
:10024c001a7017e0bb1d1a7840f2f403c2f20003d7
:10025c009a5cbb1d1c78100001f0baf903001a005f
:10026c0040f21403c2f200031a55bb1d1a78bb1dd1
:10027c0001321a70bb1d1b78042be3d9c046c04653
:10028c00bd4603b090bd90b583b000affb1d0022fe
:10029c001a7017e0fb1d1a7840f20013c2f200032b
:1002ac009a5cfb1d1c78100001f092f903001a00f7
:1002bc0040f21c03c2f200031a55fb1d1a78fb1df9
:1002cc0001321a70fb1d1b78022be3d9bb1d0022d7
:1002dc001a7017e0bb1d1a7840f20413c2f2000327
:1002ec009a5cbb1d1c78100001f072f903001a0017
:1002fc0040f22003c2f200031a55bb1d1a78bb1d35
:10030c0001321a70bb1d1b78102be3d9c046c046b6
:10031c00bd4603b090bd90b583b000affb1d00226d
:10032c001a7017e0fb1d1a7840f21813c2f2000382
:10033c009a5cfb1d1c78100001f04af903001a00ae
:10034c0040f23403c2f200031a55fb1d1a78fb1d50
:10035c0001321a70fb1d1b78022be3d9bb1d002246
:10036c001a7017e0bb1d1a7840f21c13c2f200037e
:10037c009a5cbb1d1c78100001f02af903001a00ce
:10038c0040f23803c2f200031a55bb1d1a78bb1d8c
:10039c0001321a70bb1d1b78062be3d9c046c04630
:1003ac00bd4603b090bd90b583b000affb1d0022dd
:1003bc001a7017e0fb1d1a7840f2e803c2f2000332
:1003cc009a5cfb1d1c78100001f002f903001a0066
:1003dc0040f20403c2f200031a55fb1d1a78fb1df0
:1003ec0001321a70fb1d1b78032be3d9c046c046a3
:1003fc00bd4603b090bd90b583b000affb1d00228d
:10040c001a7017e0fb1d1a7840f2ec03c2f20003dd
:10041c009a5cfb1d1c78100001f0daf803001a003e
:10042c0040f20803c2f200031a55fb1d1a78fb1d9b
:10043c0001321a70fb1d1b78032be3d9c046c04652
:10044c00bd4603b090bd90b583b000affb1d00223c
:10045c001a7017e0fb1d1a7840f2f003c2f2000389
:10046c009a5cfb1d1c78100001f0b2f803001a0016
:10047c0040f20c03c2f200031a55fb1d1a78fb1d47
:10048c0001321a70fb1d1b78022be3d9c046c04603
:10049c00bd4603b090bd80b500af41f6c013c0f2ad
:1004ac000003180000f047ff40f20003c2f2000303
:1004bc005b78180000f022ff41f6d813c0f200035d
:1004cc00180000f038ff41f6dc13c0f200031800ee
:1004dc0000f031ff41f6ec13c0f20003180000f0fd
:1004ec002aff41f6f013c0f20003180000f023ffbe
:1004fc0041f6f813c0f20003180000f01cff41f69f
:10050c000423c0f20003180000f015ff41f60c2381
:10051c00c0f20003180000f00eff41f61423c0f2e5
:10052c000003180000f007ff41f6ec13c0f20003c3
:10053c00180000f000ff41f62023c0f20003180061
:10054c0000f0f9fec046bd4680bdf0b589b000afe5
:10055c0040f20403c2f200035b785ab240f25c032f
:10056c00c2f200039a7040f20403c2f200039b78bb
:10057c005ab240f25c03c2f200035a7040f2040318
:10058c00c2f20003db785ab240f25c03c2f2000301
:10059c001a7040f25c03c2f200031b681a1140f29d
:1005ac005c03c2f200031a6040f21003c2f20003b3
:1005bc009b781b029ab240f21003c2f200035b78e4
:1005cc001900162608203318db1952181a8040f22d
:1005dc001403c2f200039b781b029ab240f214037c
:1005ec00c2f200035b78d3189ab214231b18db19e0
:1005fc001a8040f21403c2f200031b791b029ab258
:10060c0040f21403c2f20003db78d3189ab2122121
:10061c000918cb191a8040f25c03c2f200031b6864
:10062c00180001f012fb00220023c4f2d00301f0e9
:10063c0038f802000b0014001d0008203218d319e2
:10064c001b88180001f00ffb00220023c4f290035a
:10065c0001f027f802000b002000290001f024fb18
:10066c0002000b0014001d00142308201a18d319c3
:10067c0000229b5e180001f0e8fa02000b0020003b
:10068c00290000f0b3fe02000b003a617b6140f2de
:10069c005c03c2f200031b68180001f0d6fa0022ba
:1006ac008223db0500f0fdff02000b0014001d008f
:1006bc000823f218d3191b88180001f0d4fa002271
:1006cc000023c4f2c00300f0ecff02000b0020007a
:1006dc00290001f0e9fa02000b0014001d0040f2a1
:1006ec005c03c2f200031b68180001f0aefa002292
:1006fc008223db0500f0d5ff02000b003a607b6023
:10070c000823f218d3191b88180001f0acfa002248
:10071c000023c4f2c00300f0c4ff02000b003868d1
:10072c00796801f0c1fa02000b002000290000f0ea
:10073c005dfe02000b0014001d0012210823cb18d3
:10074c00db1900229b5e180001f07ffa02000b00ff
:10075c002000290000f04afe02000b00ba60fb608a
:10076c00ba68fb683869796900f09ffb02000b00de
:10077c001000190001f0eef9020040f24003c2f241
:10078c0000031a60ba68fb683869796900f08dfb60
:10079c0002000b001000190000220023c4f2b40365
:1007ac0000f07fff02000b001000190040f248031c
:1007bc00c2f2000318605960c046bd4609b0f0bdd6
:1007cc00f0b58bb000af40f20803c2f200035b78c7
:1007dc005ab240f26003c2f200039a7040f208036e
:1007ec00c2f200039b785ab240f26003c2f20003db
:1007fc005a7040f20803c2f20003db785ab240f29e
:10080c006003c2f200031a7040f26003c2f20003ec
:10081c001b681a1140f26003c2f200031a6040f226
:10082c001c03c2f200039b781b029ab240f21c0319
:10083c00c2f200035b7819002626bb1952181a80e5
:10084c0040f22003c2f200039b781b029ab240f2e2
:10085c002003c2f200035b78d3189ab22423fb184e
:10086c001a8040f22003c2f200031b791b029ab2d9
:10087c0040f22003c2f20003db78d3189ab2222193
:10088c007b181a8040f22003c2f200039b791b02f2
:10089c009ab240f22003c2f200035b79d3189ab2e9
:1008ac0020203b181a8040f22003c2f200031b7a6e
:1008bc001b029ab240f22003c2f20003db79d31878
:1008cc009ab21e243b191a8040f22003c2f2000394
:1008dc009b7a1b029ab240f22003c2f200035b7aad
:1008ec00d3189ab21c257b191a8040f22003c2f24d
:1008fc0000031b7b1b029ab240f22003c2f20003de
:10090c00db7ad3189ab21a257b191a8040f220038d
:10091c00c2f200039b7b1b029ab240f22003c2f28c
:10092c0000035b7bd3189ab218257b191a8040f20e
:10093c002003c2f200031b7c1b029ab240f220037c
:10094c00c2f20003db7bd3189ab216257b191a80ee
:10095c0040f24003c2f200031b68180001f075f965
:10096c0000228023db0500f09cfe02000b0010002f
:10097c001900002244f20003c4f2ef0301f094f9d1
:10098c0002000b00ba60fb60ba68fb68b868f968d3
:10099c0000f02cfd02000b0014001d001c22bb18e3
:1009ac0000229b5e180001f050f902000b002000a1
:1009bc00290000f01bfd02000b00100019000022a2
:1009cc000023c4f2e00300f06cfe02000b003a605e
:1009dc007b601e243b1900229b5e180001f035f948
:1009ec00ba68fb6800f002fd02000b001000190051
:1009fc0002000b0000f059fa02000b00386879680d
:100a0c0000f053fa02000b003a607b6000220023d6
:100a1c00c4f210033868796800f043fe02000b0042
:100a2c0014001d0020203b1800229b5e180001f0d2
:100a3c000cf900220023c4f2f00300f0d7fc0200f2
:100a4c000b002000290000f030fa02000b003a6085
:100a5c007b6022217b1800229b5e180001f0f5f8c8
:100a6c00ba68fb6800f0c2fc02000b001000190011
:100a7c00ba68fb6800f0bafc02000b001000190009
:100a8c0000220023c4f2201300f00bfe02000b0026
:100a9c0014001d002423fb1800229b5e180001f09b
:100aac00d4f8ba68fb6800f0a1fc02000b0020002f
:100abc00290000f0faf902000b00100019000022c6
:100acc000023c4f2201300f0ecfd02000b00ba600e
:100adc00fb6000220023c4f2e003b868f96800f060
:100aec00e0fd02000b001000190000220023c3f6e9
:100afc00f07300f0daf902000b0014001d00bb19b2
:100b0c001b88180001f0aff802000b002000290030
:100b1c0000f06cfc02000b00ba60fb6000220023aa
:100b2c00b868f96801f030f803003bb140f25003ab
:100b3c00c2f20003002000211860596040f26003eb
:100b4c00c2f200031b68180001f07ff802000b00d2
:100b5c0000200021c4f2301101f0a6f802000b00b5
:100b6c001000190040f25003c2f2000318605960e3
:100b7c0040f25003c2f200031c685d68002200239f
:100b8c00c4f2b0033868796800f08bfd02000b00ea
:100b9c002000290001f088f802000b001000190059
:100bac00002246f60023c4f2b80300f01ffc02003a
:100bbc000b0010001900ba68fb6800f072fd02000f
:100bcc000b001000190040f25003c2f20003186031
:100bdc0059601623fb1800229b5e180001f035f8b3
:100bec0040f25003c2f200031a685b6800f0fefb8f
:100bfc0002000b001000190040f25003c2f2000377
:100c0c001a685b6800f0f2fb02000b001000190080
:100c1c0000220023c4f2e01300f043fd02000b009d
:100c2c00ba60fb601823fb1800229b5e180001f0d1
:100c3c000cf840f25003c2f200031a685b6800f033
:100c4c00d5fb02000b001000190000220023c4f297
:100c5c00e00300f026fd02000b003a607b603a686e
:100c6c007b68b868f96800f020f902000b001400ea
:100c7c001d001a23fb1800229b5e180000f0e5fff4
:100c8c0002000b002000290000f00ff902000b00fd
:100c9c001000190000220023c4f2300300f001fd03
:100cac0002000b001000190040f25003c2f20003c6
:100cbc001a685b6800f0f9f802000b0010001900cc
:100ccc0040f25003c2f2000318605960c046bd46a2
:100cdc000bb0f0bdf0b585b000af40f20c03c2f222
:100cec0000035b785ab240f26403c2f200035a70fc
:100cfc0040f20c03c2f200039b785ab240f2640338
:100d0c00c2f200031a700f243a1940f23403c2f2f3
:100d1c0000035b78137040f23803c2f200039b7837
:100d2c001b029ab240f23803c2f200035b78d3186c
:100d3c009ab20c257b191a800b203a1840f2340316
:100d4c00c2f200039b78137040f23803c2f2000326
:100d5c00db781b019ab240f23803c2f200031b7914
:100d6c0019000f230b409bb2d3189ab20826bb195b
:100d7c001a8040f23803c2f200035b791b019ab26d
:100d8c0040f23803c2f200031b791b09dbb21900d5
:100d9c000f230b409bb2d3189ab2bb1d1a8040f2a2
:100dac003803c2f200039a797b1d1a7040f240039b
:100dbc00c2f200031b684df2207ccff6fe7c63442c
:100dcc003b6040f25c03c2f200031b689a03bb1940
:100ddc0000215b5e1b05d21abb1d00215b5e3968ce
:100dec004b43d31a44f2000c6344db137a1d127884
:100dfc0052b239684a43921239180978386841431b
:100e0c00c91248f2000c61444a43921280218903b2
:100e1c008c46624479190020095e4a4342f2000c68
:100e2c006244921353433b603b68db133a68d21322
:100e3c005343db113a19127853431b113a68d31af6
:100e4c003b603b68002b00da00233b603a680123cf
:100e5c00c1f600139a4201dbc8235a053a603b687d
:100e6c001b131a0040f25803c2f200031a6040f23e
:100e7c005803c2f200031b68180000f0f4fe0022b5
:100e8c000023c4f2900300f00cfc02000b001000d5
:100e9c00190000f090fe020040f25803c2f2000369
:0a0eac001a60c046bd4605b0f0bd57
:020000040000fa
:100eb600f0b40125ed070f005f405ad48b4200d1f4
:100ec600824205d950404240504059404b4059401b
:100ed6004e18760ddf187f0d3bd0741c640529d0a3
:100ee600f41b352c26d80e0ddb022b43db0ac90278
:100ef6002943c9121700202c1ed2e741e240574071
:100f0600e3415a40a340e3405a4000248018594127
:100f16000ad3b21c520521d0c207012f6241170025
:100f26004008cb0718434908013636054208af4149
:100f360060417141f0bc7047203c06d01f00e7417c
:100f4600e3405f400024012a6741c0186141ebd3aa
:100f5600dfe7002eeed129400020ebe70136310510
:100f66000020e7e7e742e5d10020c143090dc904a7
:100f7600e0e76b400e00871a9e4104d26e40c01b0c
:100f8600b141d21973414e18df18ac0ae642e9d2d4
:100f9600760d7f0d31d0f41b362ccbd8b4460e0d12
:100fa600db022b43db0ac9022943c90a012c32d8ca
:100fb60004d1d4075208df073a435b08ef0a6442bc
:100fc600904199411ed0002239424dd12419404109
:100fd60049410124394204d10134001849413942ba
:100fe600fad06246a24204d9361b013e360589195b
:100ff600a0e7f10ac90700209ce736429ad10020f3
:10100600002197e70200224394d0b842ded20100c5
:1010160020002024e3d1202c13dd203ce2411700e0
:10102600a240e2405740e3415a40a340e3405a40c1
:10103600012fbf410137174300227c42984191415d
:101046000ce01700e741e2405740e3415a40a34015
:10105600e3405a407c429041994100220f0303d25b
:10106600013e241940414941013e36054708ac413d
:0810760050417141f0bc7047cc
:020000040000fa
:10107e0080b500af44f20003c4f2001306225a609a
:10108e0000f007f800f01bf800f056f8c046bd4619
:10109e0080bd80b500af41f20003c4f200034e22c2
:1010ae001a76c04641f20003c4f200031b691022f7
:1010be001340102bf6d1c046c046bd4680bd80b54c
:1010ce0000af41f60043c4f2000340f20512c0f235
:1010de0001021a62c04641f60043c4f200035b6887
:1010ee0004221340042bf6d041f60043c4f2000351
:1010fe00c82240219950c04641f60043c4f2000375
:10110e00c8229b5840221340402bf5d141f6004394
:10111e00c4f20003d02240219950c04641f600434c
:10112e00c4f20003d0229b5840221340402bf5d12d
:10113e00c046c046bd4680bd80b500af43f2000339
:10114e00c4f2000348f200721a6043f20003c4f2c4
:10115e000003802240f20011995043f20003c4f2c2
:10116e000003c8220121995443f20003c4f2000384
:10117e00c9220121995443f20003c4f200034b2209
:10118e000121995443f20003c4f2000348220121c5
:10119e00995443f20003c4f20003492201219954e9
:1011ae0043f20003c4f200034a220121995443f290
:1011be000003c4f2000357220621995443f20003a0
:1011ce00c4f200034f220021995443f20003c4f2eb
:1011de000003b4223321995443f20003c4f20003f6
:1011ee0034222221995443f20003c4f20003352223
:1011fe002221995443f20003c4f200039a6943f288
:10120e000003c4f2000348f200010a439a61c0468b
:04121e00bd4680bd8c
:020000040000fa
:02122200fee7e5
:020000040000fa
:1012240080b582b000af0200fb1d1a70fb1d1b7855
:101234007f2b12d8fb1d1b781a001f231a401100a4
:101244004ef20013cef20003fa1d127852b2520984
:101254000120884001009200d150c046bd4602b032
:1012640080bd80b500af40f60003c4f20003da6924
:1012740040f60003c4f2000310210a43da6141f28c
:101284000003c4f200238422c6f210021a6041f261
:101294000003c4f200231a4a9a8141f20003c4f203
:1012a4000023c02292025a60c04641f20003c4f2f5
:1012b4000023db6904221340042bf6d041f200031f
:1012c400c4f200231a6841f20003c4f2002302218d
:1012d4000a431a60c04641f20003c4f20023db69ea
:1012e40002221340022bf6d041f20003c4f2002381
:1012f40004229a752d20fff793ffc046bd4680bd9a
:101304008bfdffff80b582b000af0200fb1d1a7099
:10131400c04641f20003c4f200231b7edbb21a0074
:1013240001231340012bf4d141f20003c4f2002342
:10133400fa1d12789a62c046bd4602b080bd80b5df
:1013440082b000af786014e0c04641f20003c4f2fa
:1013540000231b7edbb21a0001231340012bf4d1be
:101364007b685a1c7a601a7841f20003c4f20023a5
:101374009a627b681b78002be6d1c046c046bd4606
:1013840002b080bd80b582b000af41f20003c4f268
:1013940000231b7edbb21a0004231340042b0bd161
:1013a40041f20003c4f200239a6afb1d1a70fb1d6c
:1013b4001b781800fff7a6ffc046bd4602b080bdeb
:020000040000fa
:1013c40006d128b9f54203d800d30ab96d0d09d165
:1013d4000020c143090dc904f0bdf9d11242f7d16f
:1013e400640df5d00020c14349054908a6e000205a
:1013f4006146f0bdf0b50127ff070e005e403e4098
:10140400b446be0a4c18dd18f442d9d2f542e4d2ef
:10141400640decd06d0dead06419c9023943460d50
:10142400c0023143db023b43db0a10b48e4685b273
:1014340097b26f43140c6c433e0ca419260c24047d
:10144400bfb227439cb26c43a419190c6943250c01
:10145400a4b249190d04090c6419000c95b2454352
:101464003e0c76193743bfb2360c150c4543ad1903
:10147400a6b2240cad192e0437432e0c36199db296
:101484004543ad19acb22e0c89191d0c45436d189a
:101494002e04290c3443704680b295b245433e0c69
:1014a40076193743bfb2360c150c4543ad19a6b2b5
:1014b400ad19240c2e0437432e0c36199db2454326
:1014c400ad19acb22e0c89191d0c45436d182e04b0
:1014d4003443290c75462d0c90b268433e0c801998
:1014e4000604bfb23e43070ca0b23f18120c6a4375
:1014f400d019020c80b2240ca4189ab26a431219af
:1015040014042043120c89181b0c6b43c91810bc1b
:1015140001273d05294203d1b61940414941013c07
:10152400ff077d0d013d641b0bdb6d00ac4209da46
:10153400240500254208be416841614166463143a5
:06154400f0bd54e74ee784
:020000040000fa
:10154a0080b500af40f60003c4f20003da6940f642
:10155a000003c4f2000304210a43da6140f60003df
:10156a00c4f200238c22c2f201021a6040f6000380
:10157a00c4f200238b221a7340f60003c4f200233c
:10158a0042f20022c0f202025a60c04640f600034c
:10159a00c4f20023db6904221340042bf6d040f680
:1015aa000003c4f200231a6840f60003c4f20023c1
:1015ba0002210a431a60c04640f60003c4f200231f
:1015ca00db6902221340022bf6d0c046c046bd4654
:1015da0080bd90b585b000af0200fb1d1a70c046f1
:1015ea0040f60003c4f200231b7edbb21a0001237b
:1015fa001340012bf4d140f60003c4f20023fa1d74
:10160a0012789a62c04640f60003c4f200231b7e99
:10161a00dbb21a0004231340042bf4d140f6000372
:10162a00c4f200239a6a0f243b191a7041f68c43bc
:10163a00c0f200031800fff77ffe3b191b78180061
:10164a00fff75dfe0a20fff75afe3b191b781800c8
:10165a00bd4605b090bd80b582b000af40f600032c
:10166a00c4f200231b7edbb21a0004231340abb181
:10167a0040f60003c4f200239a6afb1d1a7041f671
:10168a008c43c0f200031800fff756fefb1d1b78bf
:10169a001800fff734fe0a20fff731fec046bd46a8
:0416aa0002b080bd4d
:020000040000fa
:1016ae00f0b40125ed070c005c402c40a446ae0ab8
:1016be004c18df18f4423dd2f74244d2640d4ad0a2
:1016ce007f0d3bd0e41bc9022943cf0adb022b431b
:1016de00db0a0600b61a9f4104d2013cb6197f41bf
:1016ee00b6185f416812800d241836dd001884424a
:1016fe0024d8e80c0021b6197f41b61a9f4103d3b6
:10170e0040414941f7d304e0b6185f410018494102
:10171e00f1d32405b6197f41b61a9f4105d337433d
:10172e00c20717430022012f504161416246114307
:10173e00f0bc70470ad148b9f74207d20020c14326
:10174e00490d0905f2e70ab9f74206d00020c14358
:10175e00090dc904ece77f0df8d000206146e7e7dc
:020000040000fa
:02176e007047c2
:020000040000fa
:10177000240100200400000001000000000000001f
:10178000b80000201c00000000000000dc00002069
:101790004700000001000000d00000007201742525
:1017a00075800000fafbfc00f7f8f900fdfe000070
:1017b000888900008a8b8c8d000000008e8f0000cd
:1017c000909192939495969798999a9b9c9d9e9fa1
:1017d00000000000a1e30000e1e2e4e5e6e700002c
:1017e000000000206800000000000000d40000207d
:1017f000040000000000000068000020500000000d
:1018000000000000d80000200400000000000000dc
:10181000280100200400000001000000000000007a
:101820000000000000000000666666666666666688
:020000040000fa
:1018300080b500affff723fcfff715fdfff785fe2e
:1018400041f63c13c0f200031800fff77afd41f6a1
:101850005813c0f200031800fff773fdfef7d1fc28
:10186000fef717fdfef75dfd41f67413c0f20003ad
:101870001800fff766fd41f69813c0f20003180048
:10188000fff75ffdfef795fc00f0f5f8fef776fc3c
:10189000fef78ffdfef7b5fdfef7dbfdfef75bfe05
:1018a000fef794fffff71cfafef7fbfd44f680738a
:0c18b000c0f21203180000f0b6f8e5e7e3
:020000040000fa
:1018bc0040f20003c0f2000323b140f20003c0f277
:1018cc000003984740f20003c0f2000323b140f23a
:1018dc000003c0f20003984700f022f940f2000325
:1018ec00c0f200037f2293434ef60052cef2000268
:1018fc00936041f69123c0f20003984740f2000335
:10190c00c0f2000323b140f20003c0f20003984779
:10191c0040f20003c0f2000323b140f20003c0f216
:0e192c000003984700210020fff77cfffee734
:020000040000fa
:02193a007047f4
:020000040000fa
:10193c00535049205765617468657220436c696324
:10194c006b204578616d706c650a0000496e697496
:10195c0069616c697a696e67205765617468657234
:10196c0020436c69636b0a000d0a0d0a504943331e
:10197c00325f4c5330302057656174686572205368
:10198c00746174696f6e0d0a00000000424d45329f
:10199c00383020456e7669726f6e6d656e74616c51
:0d19ac002053656e736f722044656d6f00ef
:020000040000fa
:1019bc00000000000d0a424d453238302044657657
:1019cc006963652049443a20307800000d0a000014
:1019dc0054656d70657261747572653a2000000013
:1019ec0032350000646567430d0a00005072657360
:1019fc00737572653a2000003130303030300000a1
:101a0c0050610d0a0000000048756d6964697479b5
:091a1c003a20000025250d0a0006
:020000040000fa
:101a260080b582b000af786002e07b68013b7b60e6
:101a36007b68002bf9d1c046c046bd4602b080bdca
:101a460080b500af43f20003c4f2000348f200027f
:101a56005a61c046bd4680bd80b500af43f2000363
:101a6600c4f2000348f200029a61c046bd4680bd3a
:101a760080b500af43f20003c4f2000348f200024f
:081a8600da61c046bd4680bdd7
:020000040000fa
:101a900000230e4a10b513600d4a0e4c13600e4a17
:101aa00013600e4a13600e4a13600e4a53621361ac
:101ab00001339360fff741fffff73fff0a4b9c4262
:101ac00000d310bd08cc9847f8e7c046d8000020e6
:101ad00074000020680100007000002068000020f1
:0c1ae0006c000020780000206c01000069
:020000040000fa
:101aec0010b5054c237833b9044b13b1044800e00e
:101afc0000bf0123237010bdb800002000000000bf
:101b0c0000000000034b10b51bb10349034800e073
:101b1c0000bf10bd00000000bc0000200000000051
:020000040000fa
:101b2c0010b50a48016821b9436813b9fff719fecb
:101b3c0010bd04008368064a9bb20c349b009b5872
:101b4c0042682000984780002018ebe770170000cf
:041b5c00a01c0000c9
:020000040000fa
:101b6000f4464a1805d200f02ef801d5c0174008f7
:101b7000604701235b05d34206d200f024f801d56b
:101b80000120c0074042604701d10042f5d0d01784
:041b90004008704752
:020000040000fa
:101b940070b4012676054c005d00e6420cd8ee4296
:101ba4000ad825430543154303d0994204d19042f2
:0e1bb40002d1012070bc7047002070bc704749
:020000040000fa
:101bc2004a0010d2520d03231b02ff33d21a0ad449
:101bd20052421f3209d4400dc90208430123db07d8
:0e1be2001843d040704700207047d01770475e
:020000040000fa
:101bf0001e1819181c182c1834182e182b182d18ec
:101c000026182818371803181118401838183018d3
:041c100007180000b1
:020000040000fa
:101c14001e1819181c182c1834182e182b182d18c7
:101c240026182818371803181118401838183018af
:041c3400071800008d
:020000040000fa
:101c3800002310b5934206d103201840421e90415c
:0e1c48009b08c01810bdc45ccc540133f2e7f9
:020000040000fa
:101c560041f67343c0f20003004206d5404200b588
:0c1c6600984708bc0122d2071143184720
:020000040000fa
:101c720040f21d42010007d002d4013a0018fcd5ff
:0a1c82001205c30a400599187047c7
:020000040000fa
:101c8c0053504920436861722072656365697665bb
:041c9c00643a200086
:020000040000fa
:101ca000c71c0000391c0000d91c0000d91c000012
:041cb000d91c00003b
:020000040000fa
:101cb400f0b40125ed076b4040f6bd64c0f20004aa
:021cc4002047b7
:020000040000fa
:101cc6008a18914201d10020704700230b70013120
:021cd600f7e72e
:020000040000fa
:041cd8000020704731
:020000040000fa
:0200000400807a
:0440000077438fb0c3
:020000040000fa
:0200000400807a
:04400400bbf0ffff0f
:020000040000fa
:0200000400807a
:0440080000fc33e89d
:020000040000fa
:0200000400807a
:04400c0000ffffffb3
:020000040000fa
:0200000400807a
:044010008412000016
:020000040000fa
:0200000400807a
:0440140002000000a6
:020000040000fa
:0200000400807a
:04401800140001008f
:020000040000fa
:0200000400807a
:04401c0000000000a0
:020000040000fa
:0200000400807a
:04402000173db6e6ac
:020000040000fa
:0200000400807a
:04c00000ffff07f047
:020000040000fa
:0200000400807a
:04c004000000e8ff51
:020000040000fa
:0200000400807a
:04c00800cc9a34c0da
:020000040000fa
:0200000400807a
:04c01000ffffffff30
:020000040000fa
:0200000400807a
:04c01400ffffffff2c
:020000040000fa
:0200000400807a
:04c01800ffffffff28
:020000040000fa
:0200000400807a
:04c01c00ffffffff24
:020000040000fa
:0200000400807a
:04c02000ffffffff20
:020000040000fa
:0200000400807a
:04c02400ffffffff1c
:020000040000fa
:0200000400807a
:04c02800ffffffff18
:020000040000fa
:0200000400807a
:04c02c00ffffffff14
:020000040000fa
:0200000400807a
:04c03000ffffffff10
:020000040000fa
:0200000400807a
:04c03400ffffffff0c
:020000040000fa
:0200000400807a
:04c03800ffffffff08
:020000040000fa
:0200000400807a
:04c03c00ffffffff04
:020000040000fa
:0200000400807a
:04c04000ffffffff00
:020000040000fa
:0200000400807a
:04c04400fffffffffc
:020000040000fa
:0200000400807a
:04c04800fffffffff8
:020000040000fa
:0200000400807a
:04c04c00fffffffff4
:020000040000fa
:0200000400807a
:04c05000fffffffff0
:020000040000fa
:0200000400807a
:04c05400ffffffffec
:020000040000fa
:0200000400807a
:04c05800ffffffffe8
:020000040000fa
:0200000400807a
:04c05c00ffffffffe4
:020000040000fa
:0200000400807a
:04c06000ffffffffe0
:020000040000fa
:0200000400807a
:04c06400ffffffffdc
:020000040000fa
:0200000400807a
:04c06800ffffffffd8
:020000040000fa
:0200000400807a
:04c06c00ffffffffd4
:020000040000fa
:0200000400807a
:04c07000ffffffffd0
:020000040000fa
:0200000400807a
:04c07400ffffffffcc
:020000040000fa
:0200000400807a
:04c07800ffffffffc8
:020000040000fa
:0200000400807a
:04c07c00ffffffffc4
:020000040000fa
:0200000400807a
:04c08000ffffffffc0
:020000040000fa
:0200000400807a
:04c08400ffffffffbc
:020000040000fa
:0200000400807a
:04c08800ffffffffb8
:020000040000fa
:0200000400807a
:04c08c00ffffffffb4
:020000040000fa
:0200000400807a
:04c0e000ffffffff60
:020000040000fa
:0200000400807a
:04c0e400ffffffff5c
:020000040000fa
:0200000400807a
:04c0e800ffffffff58
:020000040000fa
:0200000400807a
:04c0ec00ffffffff54
:020000040000fa
:0200000400807a
:04c0f000ffffffff50
:020000040000fa
:0200000400807a
:04c0f400ffffffff4c
:020000040000fa
:0200000400807a
:04c0f800ffffffff48
:020000040000fa
:0200000400807a
:04c0fc00ffffffff44
:00000001FF
