:020000040000fa
:10000000f07f0020cd080000070500000705000074
:1000100000000000000000000000000000000000e0
:1000200000000000000000000000000007050000c4
:1000300000000000000000000705000007050000a8
:100040000705000007050000070500000705000080
:100050000705000007050000070500000705000070
:100060000705000007050000070500000705000060
:100070000705000007050000070500000705000050
:100080000705000007050000070500000705000040
:100090000705000007050000070500000705000030
:1000a0000705000007050000070500000705000020
:1000b0000705000007050000070500000705000010
:1000c0000705000007050000070500000705000000
:1000d00007050000070500000705000007050000f0
:1000e00007050000070500000705000007050000e0
:1000f00007050000070500000705000007050000d0
:1001000007050000070500000705000007050000bf
:1001100007050000070500000705000007050000af
:10012000070500000705000007050000070500009f
:10013000070500000705000007050000070500008f
:10014000070500000705000007050000070500007f
:0c0150000705000007050000070500007f
:020000040000fa
:10015c00f8b5c046f8bc08bc9e467047350a00008e
:10016c00f8b5c046f8bc08bc9e467047110a0000a2
:020000040000fa
:10017c0080b582b000af00237b600ce040f2e0035e
:10018c00c2f200037a689b181b78180000f0cffab3
:10019c007b6801337b607b68062befddc046c04675
:1001ac00bd4602b080bd90b583b000affb1d0022f0
:1001bc001a7017e0fb1d1a7840f2f403c2f2000328
:1001cc009a5cfb1d1c78100000f0b1fa03001a00b9
:1001dc0040f21003c2f200031a55fb1d1a78fb1de6
:1001ec0001321a70fb1d1b78022be3d9bb1d0022b8
:1001fc001a7017e0bb1d1a7840f2f403c2f2000328
:10020c009a5cbb1d1c78100000f091fa03001a00d8
:10021c0040f21403c2f200031a55bb1d1a78bb1d21
:10022c0001321a70bb1d1b78022be3d9c046c046a5
:10023c00bd4603b090bd90b583b000affb1d00224e
:10024c001a7017e0fb1d1a7840f20013c2f200037b
:10025c009a5cfb1d1c78100000f069fa03001a0070
:10026c0040f21c03c2f200031a55fb1d1a78fb1d49
:10027c0001321a70fb1d1b78022be3d9bb1d002227
:10028c001a7017e0bb1d1a7840f20413c2f2000377
:10029c009a5cbb1d1c78100000f049fa03001a0090
:1002ac0040f22003c2f200031a55bb1d1a78bb1d85
:1002bc0001321a70bb1d1b78102be3d9c046c04607
:1002cc00bd4603b090bd90b583b000affb1d0022be
:1002dc001a7017e0fb1d1a7840f21813c2f20003d3
:1002ec009a5cfb1d1c78100000f021fa03001a0028
:1002fc0040f23403c2f200031a55fb1d1a78fb1da1
:10030c0001321a70fb1d1b78022be3d9bb1d002296
:10031c001a7017e0bb1d1a7840f21c13c2f20003ce
:10032c009a5cbb1d1c78100000f001fa03001a0047
:10033c0040f23803c2f200031a55bb1d1a78bb1ddc
:10034c0001321a70bb1d1b78062be3d9c046c04680
:06035c00bd4603b090bd98
:020000040000fa
:1003620080b500af44f20003c4f2001306225a60c3
:1003720000f007f800f01bf800f056f8c046bd4642
:1003820080bd80b500af41f20003c4f200034e22eb
:100392001a76c04641f20003c4f200031b69102220
:1003a2001340102bf6d1c046c046bd4680bd80b575
:1003b20000af41f60043c4f2000340f20512c0f25e
:1003c20001021a62c04641f60043c4f200035b68b0
:1003d20004221340042bf6d041f60043c4f200037a
:1003e200c82240219950c04641f60043c4f200039e
:1003f200c8229b5840221340402bf5d141f60043be
:10040200c4f20003d02240219950c04641f6004375
:10041200c4f20003d0229b5840221340402bf5d156
:10042200c046c046bd4680bd80b500af43f2000362
:10043200c4f2000348f200721a6043f20003c4f2ed
:100442000003802240f20011995043f20003c4f2eb
:100452000003c8220121995443f20003c4f20003ad
:10046200c9220121995443f20003c4f200034b2232
:100472000121995443f20003c4f2000348220121ee
:10048200995443f20003c4f2000349220121995412
:1004920043f20003c4f200034a220121995443f2b9
:1004a2000003c4f2000357220621995443f20003c9
:1004b200c4f200034f220021995443f20003c4f214
:1004c2000003b4223321995443f20003c4f200031f
:1004d20034222221995443f20003c4f2000335224c
:1004e2002221995443f20003c4f200039a6943f2b1
:1004f2000003c4f2000348f200010a439a61c046b5
:04050200bd4680bdb5
:020000040000fa
:02050600fee70e
:020000040000fa
:1005080080b582b000af0200fb1d1a70fb1d1b787e
:100518007f2b12d8fb1d1b781a001f231a401100cd
:100528004ef20013cef20003fa1d127852b25209ad
:100538000120884001009200d150c046bd4602b05b
:1005480080bd80b500af40f60003c4f20003da694d
:1005580040f60003c4f2000310210a43da6141f2b5
:100568000003c4f200238422c6f210021a6041f28a
:100578000003c4f200231a4a9a8141f20003c4f22c
:100588000023c02292025a60c04641f20003c4f21e
:100598000023db6904221340042bf6d041f2000348
:1005a800c4f200231a6841f20003c4f200230221b6
:1005b8000a431a60c04641f20003c4f20023db6913
:1005c80002221340022bf6d041f20003c4f20023aa
:1005d80004229a752b20fff793ffc046bd4680bdc5
:1005e8008bfdffff80b582b000af0200fb1d1a70c3
:1005f800c04641f20003c4f200231b7edbb21a009e
:1006080001231340012bf4d141f20003c4f200236b
:10061800fa1d12789a62c046bd4602b080bd80b508
:1006280082b000af786014e0c04641f20003c4f223
:1006380000231b7edbb21a0001231340012bf4d1e7
:100648007b685a1c7a601a7841f20003c4f20023ce
:100658009a627b681b78002be6d1c046c046bd462f
:1006680002b080bd80b582b000af41f20003c4f291
:1006780000231b7edbb21a0004231340042b0bd18a
:1006880041f20003c4f200239a6afb1d1a70fb1d95
:100698001b781800fff7a6ffc046bd4602b080bd14
:020000040000fa
:1006a80080b500af40f60003c4f20003da6940f6f3
:1006b8000003c4f2000304210a43da6140f6000390
:1006c800c4f200238c22c2f201021a6040f6000331
:1006d800c4f200238b221a7340f60003c4f20023ed
:1006e80042f20022c0f202025a60c04640f60003fd
:1006f800c4f20023db6904221340042bf6d040f631
:100708000003c4f200231a6840f60003c4f2002371
:1007180002210a431a60c04640f60003c4f20023cf
:10072800db6902221340022bf6d0c046c046bd4604
:1007380080bd90b585b000af0200fb1d1a70c046a1
:1007480040f60003c4f200231b7edbb21a0001232b
:100758001340012bf4d140f60003c4f20023fa1d24
:1007680012789a62c04640f60003c4f200231b7e4a
:10077800dbb21a0004231340042bf4d140f6000323
:10078800c4f200239a6a0f243b191a7040f61c33ee
:10079800c0f200031800fff742ff3b191b7818004e
:1007a800fff720ff0a20fff71dff3b191b781800f1
:1007b800bd4605b090bd80b582b000af40f60003dd
:1007c800c4f200231b7edbb21a0004231340abb132
:1007d80040f60003c4f200239a6afb1d1a7040f623
:1007e8001c33c0f200031800fff719fffb1d1b782c
:1007f8001800fff7f7fe0a20fff7f4fec046bd46d3
:0408080002b080bdfd
:020000040000fa
:10080c002401002004000000010000000000000092
:10081c00b80000201c00000000000000dc000020dc
:10082c004700000001000000d00000007201742598
:10083c0075800000fafbfc00f7f8f900fdfe0000e3
:10084c00888900008a8b8c8d000000008e8f000040
:10085c00909192939495969798999a9b9c9d9e9f14
:10086c0000000000a1e30000e1e2e4e5e6e700009f
:10087c00000000206800000000000000d4000020f0
:10088c000400000000000000680000205000000080
:10089c0000000000d8000020040000000000000050
:1008ac0028010020040000000100000000000000ee
:1008bc0000000000000000006666666666666666fc
:020000040000fa
:1008cc0040f20003c0f2000323b140f20003c0f277
:1008dc000003984740f20003c0f2000323b140f23a
:1008ec000003c0f20003984700f0acf840f200039c
:1008fc00c0f200037f2293434ef60052cef2000268
:10090c00936040f6b513c0f20003984740f2000321
:10091c00c0f2000323b140f20003c0f20003984779
:10092c0040f20003c0f2000323b140f20003c0f216
:0e093c00000398470021002000f09ef8fee71f
:020000040000fa
:10094a0080b582b000af786002e07b68013b7b60d3
:10095a007b68002bf9d1c046c046bd4602b080bdb7
:10096a0080b500af43f20003c4f2000348f200026c
:10097a005a61c046bd4680bd80b500af43f2000350
:10098a00c4f2000348f200029a61c046bd4680bd27
:10099a0080b500af43f20003c4f2000348f200023c
:0809aa00da61c046bd4680bdc4
:020000040000fa
:0209b20070478c
:020000040000fa
:1009b40000230e4a10b513600d4a0e4c13600e4a04
:1009c40013600e4a13600e4a13600e4a5362136199
:1009d4000133936000f0bdf800f0bbf80a4b9c4271
:1009e40000d310bd08cc9847f8e7c046d8000020d3
:1009f40074000020680100007000002068000020de
:0c0a04006c000020780000206c01000055
:020000040000fa
:100a100010b5054c237833b9044b13b1044800e0fa
:100a200000bf0123237010bdb800002000000000ab
:100a300000000000034b10b51bb10349034800e060
:100a400000bf10bd00000000bc000020000000003e
:020000040000fa
:100a500010b50a48016821b9436813b9fff7a9ff27
:100a600010bd04008368064a9bb20c349b009b585f
:100a700042682000984780002018ebe70c0800002f
:040a8000300b000037
:020000040000fa
:100a840080b500affff76bfcfff75dfdfff70afed3
:100a9400fff781ff40f65833c0f200031800fff758
:100aa400c0fd44f68073c0f212031800fff74bff39
:020ab400eee76b
:020000040000fa
:100ab6001e1819181c182c1834182e182b182d1837
:100ac600261828183718031811184018381830181f
:040ad60007180000fd
:020000040000fa
:100ada001e1819181c182c1834182e182b182d1813
:100aea0026182818371803181118401838183018fb
:040afa0007180000d9
:020000040000fa
:100afe00002310b5934206d103201840421e9041a8
:0e0b0e009b08c01810bdc45ccc540133f2e744
:020000040000fa
:100b1c00535049204368617220726563656976653c
:040b2c00643a200007
:020000040000fa
:100b3000450b0000ff0a0000690b0000690b000074
:040b4000690b00003d
:020000040000fa
:100b44008a18914201d10020704700230b700131b3
:020b5400f7e7c1
:020000040000fa
:020b56007047e6
:020000040000fa
:100b58005553415254204d6573736167650a2000ef
:020000040000fa
:040b680000207047b2
:020000040000fa
:010b6c000088
:020000040000fa
:0200000400807a
:0440000077438fb0c3
:020000040000fa
:0200000400807a
:04400400bbf0ffff0f
:020000040000fa
:0200000400807a
:0440080000fc33e89d
:020000040000fa
:0200000400807a
:04400c0000ffffffb3
:020000040000fa
:0200000400807a
:044010008412000016
:020000040000fa
:0200000400807a
:0440140002000000a6
:020000040000fa
:0200000400807a
:044018001000010093
:020000040000fa
:0200000400807a
:04401c0000000000a0
:020000040000fa
:0200000400807a
:04402000173db6e6ac
:020000040000fa
:0200000400807a
:04c00000ffff07f047
:020000040000fa
:0200000400807a
:04c004000000e8ff51
:020000040000fa
:0200000400807a
:04c00800cc9a34c0da
:020000040000fa
:0200000400807a
:04c01000ffffffff30
:020000040000fa
:0200000400807a
:04c01400ffffffff2c
:020000040000fa
:0200000400807a
:04c01800ffffffff28
:020000040000fa
:0200000400807a
:04c01c00ffffffff24
:020000040000fa
:0200000400807a
:04c02000ffffffff20
:020000040000fa
:0200000400807a
:04c02400ffffffff1c
:020000040000fa
:0200000400807a
:04c02800ffffffff18
:020000040000fa
:0200000400807a
:04c02c00ffffffff14
:020000040000fa
:0200000400807a
:04c03000ffffffff10
:020000040000fa
:0200000400807a
:04c03400ffffffff0c
:020000040000fa
:0200000400807a
:04c03800ffffffff08
:020000040000fa
:0200000400807a
:04c03c00ffffffff04
:020000040000fa
:0200000400807a
:04c04000ffffffff00
:020000040000fa
:0200000400807a
:04c04400fffffffffc
:020000040000fa
:0200000400807a
:04c04800fffffffff8
:020000040000fa
:0200000400807a
:04c04c00fffffffff4
:020000040000fa
:0200000400807a
:04c05000fffffffff0
:020000040000fa
:0200000400807a
:04c05400ffffffffec
:020000040000fa
:0200000400807a
:04c05800ffffffffe8
:020000040000fa
:0200000400807a
:04c05c00ffffffffe4
:020000040000fa
:0200000400807a
:04c06000ffffffffe0
:020000040000fa
:0200000400807a
:04c06400ffffffffdc
:020000040000fa
:0200000400807a
:04c06800ffffffffd8
:020000040000fa
:0200000400807a
:04c06c00ffffffffd4
:020000040000fa
:0200000400807a
:04c07000ffffffffd0
:020000040000fa
:0200000400807a
:04c07400ffffffffcc
:020000040000fa
:0200000400807a
:04c07800ffffffffc8
:020000040000fa
:0200000400807a
:04c07c00ffffffffc4
:020000040000fa
:0200000400807a
:04c08000ffffffffc0
:020000040000fa
:0200000400807a
:04c08400ffffffffbc
:020000040000fa
:0200000400807a
:04c08800ffffffffb8
:020000040000fa
:0200000400807a
:04c08c00ffffffffb4
:020000040000fa
:0200000400807a
:04c0e000ffffffff60
:020000040000fa
:0200000400807a
:04c0e400ffffffff5c
:020000040000fa
:0200000400807a
:04c0e800ffffffff58
:020000040000fa
:0200000400807a
:04c0ec00ffffffff54
:020000040000fa
:0200000400807a
:04c0f000ffffffff50
:020000040000fa
:0200000400807a
:04c0f400ffffffff4c
:020000040000fa
:0200000400807a
:04c0f800ffffffff48
:020000040000fa
:0200000400807a
:04c0fc00ffffffff44
:00000001FF
